:020000040800F2
:1000000000000220452800082506000827060008F1
:10001000290600082B0600082D0600080000000035
:100020000000000000000000000000002F06000893
:1000300031060008000000003306000835060008FD
:10004000952800089528000895280008952800089C
:10005000952800089528000895280008952800088C
:10006000952800089528000895280008952800087C
:10007000952800089528000895280008952800086C
:10008000952800089528000895280008952800085C
:10009000952800089528000895280008952800084C
:1000A000952800089528000895280008952800083C
:1000B000952800089528000895280008952800082C
:1000C000952800089528000895280008952800081C
:1000D000952800089528000895280008952800080C
:1000E00095280008952800089528000895280008FC
:1000F00095280008952800089528000895280008EC
:1001000095280008952800089528000895280008DB
:100110009528000895280008952800085D07000824
:1001200095280008952800089528000895280008BB
:1001300095280008952800089528000895280008AB
:10014000952800089528000895280008010900084E
:10015000952800089528000895280008952800088B
:10016000952800089528000895280008952800087B
:100170009528000895280008952800080000000030
:080180009528000895280008ED
:1001880053B94AB9002908BF00281CBF4FF0FF31F6
:100198004FF0FF3000F00CB8ADF1080C6DE904CE5B
:1001A80002F0A2FBDDF804E0DDE9022304B07047A9
:1001B800704700BF0348044B834202D0034B03B18E
:1001C800184770476C0000206C00002000000000F9
:1001D8000548064B1B1AD90F01EBA301491002D0A1
:1001E800034B03B1184770476C0000206C000020D7
:1001F8000000000010B5064C237843B9FFF7DAFF7A
:10020800044B13B10448AFF300800123237010BDE1
:100218006C00002000000000102C000808B5054BF9
:100228001BB105490548AFF30080BDE80840FFF75A
:10023800CFBF00BF0000000070000020102C000895
:100248002DE9F04F8DB007AD002407940894099468
:100258000A940B940194594B1A6B42F010021A63DA
:100268001A6B02F010020192019A02941A6B42F082
:1002780004021A631A6B02F004020292029A0394AF
:100288001A6B42F080021A631A6B02F08002039222
:10029800039A04941A6B42F001021A631A6B02F073
:1002A80001020492049A05941A6B42F002021A633E
:1002B8001A6B02F002020592059A06941A6B42F034
:1002C80008021A631B6B03F008030693069B3C4F56
:1002D80022460821384601F0B3FFDFF8F0A00122DA
:1002E8001146504601F0ACFFDFF8E49022464FF289
:1002F8001001484601F0A4FF4FF00808CDF81C8013
:100308000126089609940A942946384601F094FE75
:100318000796089609940A942946504601F08CFEDF
:10032800CDF81C804FF00208CDF8208009940A947B
:100338004FF0050BCDF82CB02946504601F07CFE55
:1003480007964FF4901ACDF820A0099429461D4825
:1003580001F072FE042307930894099429461A4869
:1003680001F06AFE4FF480630793CDF8208009946A
:100378000A94CDF82CB02946134801F05DFE4FF2DF
:1003880010030793089609940A942946484601F0F1
:1003980053FE20230793089409942946484601F000
:1003A8004BFECDF81C80CDF820A00994294638468C
:1003B80001F042FE0DB0BDE8F08F00BF00380240EA
:1003C8000010024000000240000402400008024001
:1003D800000C024072B6FEE700B583B0002300931C
:1003E80001930C480C4A0260436083604FF6FF7229
:1003F800C260836102F02CF940B90090019069460F
:10040800044802F051F918B903B000BDFFF7E2FF44
:10041800FFF7E0FF8C0800200014004010B594B0EE
:1004280008AC30220021204602F031FA0023039361
:1004380004930593069307930193204A116C41F0A6
:1004480080511164126C02F080520192019A029359
:100458001B4B1A6842F480421A601B6803F48043FD
:100468000293029B012308934FF4803309930223DC
:100478000E934FF480020F92082210924FF4A87244
:100488001192129307231393204601F0B9FA88B901
:100498000F2303930223049305904FF4A05306936C
:1004A8004FF480530793052103A801F015FD18B9EF
:1004B80014B010BDFFF78EFFFFF78CFF0038024025
:1004C8000070004038B501F067FFFFF7A7FFFFF79E
:1004D800B7FEFFF781FF434B4FF055321A60424A8F
:1004E800136843F0FF031360404B1A6842F055321B
:1004F8001A603F4A116811604FF6FF725A6103F59E
:1005080020535A6C42F480725A643A4A116941F095
:1005180001011161916841F0010191601A6B42F487
:1005280080521A63A3F50933C7229A620122DA625C
:10053800DA6842F00102DA601A6842F001021A60D1
:1005480032E02D4AD15C2D4A11600133202BF8DDB1
:100558002A4B1B682A4A13602A4D2A685340214AAD
:10056800536141F2883001F043FF0024264B1C7090
:10057800286802F051F94FF47A7001F039FF05E06C
:1005880000222D21E0B202F02DF90134072CF7DD0D
:100598004FF4FA7001F02CFF194B186802F03CF97F
:1005A8004FF47A7001F024FF134B184A1360184A6D
:1005B8001360184B21221A70174BC8221A60124B6D
:1005C80001221A700E4B1B680E4A12685340054AE6
:1005D800536102F51052936843F0010393600023BE
:1005E800B4E700BF000C02400000024000100240C7
:1005F80000080240002001400000002000300240B6
:1006080058080020240000206D08002068080020F9
:10061800640800206C08002060080020FEE7FEE760
:10062800FEE7FEE7FEE770477047704710B53C4AA3
:100638001368013313603B4A1368013313603A4A65
:10064800126893421DDB374B00221A60374B1B6838
:1006580003EB8301364A52F82120002A11DD35497F
:10066800086803EB830102EB000C314C44F821C00D
:10067800314909688A4204DD091A03EB830344F807
:1006880023102E4B1B783BB12D4A1368013313609E
:100698002C4A1268934202DC01F098FE10BD284BE8
:1006A80000221A60284C23681978072002F09AF86B
:1006B800236800225978062002F094F82368002263
:1006C8009978052002F08EF823680022D978042052
:1006D80002F088F8236800221979032002F082F8D2
:1006E800236800225979022002F07CF8236800224E
:1006F8009979012002F076F823680022D97910460A
:1007080002F070F8236801332360104A11685B1AFD
:100718000F4A1278083A9342BEDB2160BCE700BF5B
:100728007C0800207008002028000020780800209D
:10073800880000202C000020740800206D0800208C
:100748005C08002060080020680800206408002079
:100758006C08002070B55B4B1A6801321A605A4960
:100768000B780133DBB20B705849087868B35849E5
:10077800096801EB810EDFF860C15CF82E40002C9F
:1007880023DDE64601EB810C0EEB8C0CDCF80850FF
:10079800DCF8046095FBF6FC01EB81010EEB810EA1
:1007A800DEF80C10ACEB0101DFF830C1DCF800C05A
:1007B80061450ADDA24239DB46494A6982F00102F5
:1007C8004A61404A0021116030E0B8B1404A1268DD
:1007D800414902EB820C01EB8C0CDCF808C002EBFF
:1007E800820201EB82014A689CFBF2F23B490968EC
:1007F8008A4203DD334A0021116017E088B1344A88
:10080800116801EB810C344A02EB8C02D2F808C063
:1008180052689CFBF2F2DFF8C4C0DCF800C0624505
:1008280026D018B9274908602C4908602C4A127844
:10083800D2B12C4A1278934232D326494A6942F4FB
:1008480000424A61284A127893422FD321494A69C3
:1008580042F480424A61254A127893422CD31D4AB9
:10086800536943F400535361214801F0DAFD70BD28
:1008780000221A4802601348026001EB8100164A00
:1008880002EB8002127C002AD0D10131104A11609B
:1008980001EB8101104A52F82110164A1160C5E790
:1008A8000C494A6922F400424A61CBE709494A697E
:1008B80022F480424A61CEE7064A536923F4005382
:1008C8005361D1E7800800208908002084080020AF
:1008D80078080020000C0240880000207C080020D6
:1008E8008508002088080020860800208708002046
:1008F8008C0800207408002008B5024800F043FE68
:1009080008BD00BFD408002000B583B000210091C5
:100918000C4B5A6C42F480425A645A6C02F480427E
:100928000092009A01911A6C42F080521A641B6C72
:1009380003F080530193019B072001F0CDFC03B025
:1009480000BD00BF0038024002680E4B9A4200D03A
:10095800704700B583B00021019103F509331A6C83
:1009680042F020021A641B6C03F020030193019BE0
:100978000A46372001F0C2FC372001F0CFFC03B053
:1009880000BD00BF0014004008B5D0F8DC0301F03A
:10099800E9FE08BD08B5D0F8DC0301F0F7FE08BD94
:1009A80008B5D0F8DC0301F0FBFE08BD704708B5B8
:1009B800D0F8DC0301F0DFFE08BD08B5D0F8DC0391
:1009C80001F0DDFE08BD022804D005D808B10220D8
:1009D80070477047012070470220704708B5D0F86B
:1009E800D00300F081FEFFF7EEFF08BDF8B50468FC
:1009F800226A02F00F031F46C2F34343C2F30A12EE
:100A0800022B00D0F8BD05461046002AFAD0C7EBE5
:100A1800071305EB8303D96A0029F3D0C7EB071343
:100A280005EB83039A6B02445B6B9A4207D9C7EBC9
:100A3800071305EB8303042283F84C20E2E70646FC
:100A48000246204600F0B6FEC7EB071305EB83030A
:100A5800DA6A3244DA629A6B32449A6304EB4714D6
:100A6800D4F810251B8DB342CCD10D4B1340002B6D
:100A7800C8D0D4F8003523F0804343F00043C4F8CD
:100A88000035C7EB071305EB830393F83C20C7EB4E
:100A9800071305EB830382F0010283F83C20B1E7DA
:100AA8000000F81F30B583B004460568D5F8403417
:100AB8000193D5F840340093009B23F02E03009354
:100AC800019B13F0020F07D0019B13F0010F25D1F2
:100AD800009B43F002030093019B13F0080F10D012
:100AE800009B43F008030093019B13F0040F2DD0E3
:100AF800637A022B15D0E379012B22D02046FFF729
:100B080056FF019B13F0200F03D0009B43F02003F6
:100B18000093009BC5F8403403B030BDFFF73AFF9F
:100B2800D6E7019B03F4C023B3F5802F04D001213D
:100B3800206800F073FEE1E70221206800F06EFEF5
:100B4800DCE74EF66022C5F80424D7E72046FFF715
:100B580034FFD6E770B505460C460668304600F007
:100B680050FE10F0040F21D006EB44130422C3F802
:100B78000825C4EB041305EB8303072283F84D20F3
:100B88002146286800F070FE2146286800F039FEEA
:100B980010F4007F6CD02146286800F065FE06EB53
:100BA80044164FF40073C6F8083570BD214628680E
:100BB80000F027FE10F4807F11D006EB44134FF4A9
:100BC8008072C3F80825C4EB041305EB83030822DD
:100BD80083F84D202146286800F046FED4E72146D8
:100BE800286800F00EFE10F0080F10D006EB441332
:100BF8000822C3F80825C4EB041305EB8303062277
:100C080083F84D202146286800F02EFEBCE72146D7
:100C1800286800F0F6FD10F4806F11D006EB44133D
:100C28004FF48062C3F80825C4EB041305EB830373
:100C3800092283F84D202146286800F015FEA3E715
:100C48002146286800F0DDFD10F0800F9CD006EBEF
:100C580044138022C3F80825C4EB041305EB83036F
:100C6800072283F84D202146286800F0FDFD8BE718
:100C78002146286800F0C5FD10F0010F7DD006EB75
:100C8800441101F5A0662023B360C4EB041305EBFF
:100C98008303DB7E012B30D0AB794BB1C4EB04135B
:100CA80005EB83031A6B3069C0F31200121A9A63BA
:100CB800C4EB041305EB8303012283F84D200020C5
:100CC8005864B26093F8263013B3022B20D0032B5C
:100CD80001D0012B22D1D1F8003543F00053C1F8DF
:100CE8000035C4EB041305EB8303012283F84C2081
:100CF80021462846FFF75AFE10E0C4EB041305EB23
:100D080083030022DA76736823F480337360C3E7C1
:100D18002146286800F0A8FD1023B360AB79012BA9
:100D28000ED0C4EB041305EB830393F83C30C4EBFB
:100D3800041405EB840483F0010384F83C3034E7A1
:100D4800C4EB041205EB8202936B128D1344013B32
:100D5800B3FBF2F313F0010F3FF427AFC4EB041316
:100D680005EB830393F83C30C4EB041405EB8404CF
:100D780083F0010384F83C3017E72146286800F027
:100D880040FD10F0200F1ED006EB44162023C6F8B5
:100D98000835C4EB041305EB83039B7E012B7FF41A
:100DA80004AFC4EB041305EB83030122DA76C4EB2A
:100DB800041305EB8303032283F84D20214628689A
:100DC80000F052FDF1E62146286800F01AFD10F007
:100DD800020F00F01D8106EB441606F5A0620223FF
:100DE8009360C4EB041305EB830393F84D30012B98
:100DF80013D0062B26D0072B2FD0092B2DD0052B4F
:100E080068D0032B00F0B480042B00F0DC80082BA2
:100E180000F0F180022B0AD1C7E6C4EB041305EBFE
:100E28008303022283F84D20012283F84C20C4EB6F
:100E3800041305EB830393F84C2021462846FFF75B
:100E4800B5FDB2E6C4EB041305EB8303022283F875
:100E58004D20052283F84C20E9E7C4EB041305EB89
:100E68008303022183F84D10596C0131596402291A
:100E78001BD9C4EB041305EB8303002159649B7E43
:100E8800012B07D0C4EB041305EB8303042283F87A
:100E98004C20CCE7C4EB041305EB8303D976197710
:100EA800536823F480335360ECE7C4EB041305EB79
:100EB8008303022283F84C2093F826300BB1934227
:100EC800B5D1D6F8003523F0804343F00043C6F887
:100ED8000035ACE7C4EB041305EB8303022183F868
:100EE8004D10DB7E012BA2D13C2303FB045393F866
:100EF8002630032B16D03C2303FB0453022283F82D
:100F08004C203C2303FB045393F826300BB1022BEF
:100F18008DD1D6F8003523F0804343F00043C6F85E
:100F2800003584E73C2101FB04518B6C01338B6451
:100F3800022B16D90B4600219964D9765B6C022BDB
:100F480004D83C2303FB045301211977536823F485
:100F5800803353603C2303FB0453042283F84C2062
:100F6800CFE73C2303FB0453022283F84C20C8E755
:100F7800C4EB041305EB8303022183F84D10DB7ED9
:100F8800012B7FF454AF3C2303FB045383F84C102C
:100F9800516841F480315160D16841F04001D1601D
:100FA800D16821F02001D16093F8263013B1022BCB
:100FB8007FF43DAFD6F8003523F0804343F000437B
:100FC800C6F8003533E7C4EB041305EB83030222AC
:100FD80083F84D2083F84C2093F8263013B19342C0
:100FE8007FF425AFD6F8003523F0804343F0004363
:100FF800C6F800351BE73C2303FB0453022283F8A1
:101008004D205A6C01325A64042283F84C200EE7B2
:101018002146286800F0F5FB10F0400F18D006EBC9
:1010280044134022C3F80825C4EB041305EB8303DB
:10103800052283F84D209B7E2BB9C4EB041305EBE6
:10104800830300225A642146286800F00DFCACE5B1
:101058002146286800F0D5FB10F0100F3FF4A5AD2D
:10106800C4EB041305EB830393F82630032B28D035
:101078000BB1022B18D1C4EB041305EB8303002238
:101088005A64AB7933B1C4EB041305EB8303DB7EFD
:10109800012B09D13C2303FB0453042283F84D2080
:1010A8002146286800F0E0FBC4EB041305EB83033A
:1010B800DB7E012B12D006EB44131022C3F808255F
:1010C80073E53C2303FB045300225A64042283F88B
:1010D8004D202146286800F0C7FBE5E7C4EB041360
:1010E80005EB83050023EB7606EB4413D3F80425C0
:1010F80022F48032C3F80425D3F80C2542F02002EC
:10110800C3F80C25D7E770B505460C460668304687
:1011180000F077FB10F0040F10D006EB4416042300
:10112800C6F80835C4EB041305EB8303072283F8DC
:101138004D202146286800F097FB70BD214628689D
:1011480000F05FFB10F0200F4AD006EB4416202376
:10115800C6F80835C4EB041305EB83035B7E012B4B
:101168002DD0C4EB041305EB83039B7E012BE4D144
:10117800C4EB041305EB8303DB7E002BDDD1C4EB4A
:10118800041305EB830393F82630012B05D0C4EB39
:10119800041305EB83030122DA762601C4EB04135A
:1011A80005EB8303032283F84D202146286800F0CD
:1011B8005BFB361B05EB860600237364BDE7C4EBB7
:1011C800041305EB830300225A76022283F84C208D
:1011D800032283F84D202146286800F045FBC0E72C
:1011E8002146286800F00DFB10F4007F0AD006EBBA
:1011F80044164FF40073C6F808352146286800F0F5
:1012080033FB9AE72146286800F0FBFA10F0010F3B
:101218003BD0C4EB041305EB830300225A64214638
:10122800286800F0EEFA10F0400F0AD0C4EB04135F
:1012380005EB830301225A7606EB44134022C3F8D8
:101248000825C4EB041305EB8303DB7E6BB1C4EB09
:10125800041305EB83030022DA7606EB4413D3F874
:10126800042522F48032C3F8042506EB4416012233
:10127800C6F80825C4EB041305EB830383F84D2057
:101288002146286800F0F0FA57E72146286800F060
:10129800B8FA10F0400F1ED0C4EB041305EB83031B
:1012A800052283F84D209B7E2BB9C4EB041305EB74
:1012B800830301225A76C4EB041305EB830300224F
:1012C8005A642146286800F0CFFA06EB44164023FA
:1012D800C6F8083531E72146286800F092FA10F080
:1012E800080F10D006EB44130822C3F80825C4EBF6
:1012F800041305EB8303062283F84D202146286852
:1013080000F0B2FA19E72146286800F07AFA10F0DE
:10131800100F20D0C4EB041305EB830300225A649A
:10132800042283F84D205B7E5BB9C4EB041305EB04
:1013380083031B7E2BB9C4EB041305EB8303012243
:101348005A762146286800F08FFA06EB44131022DB
:10135800C3F80825F1E62146286800F052FA10F093
:10136800800F38D0AB79F3B1C4EB041205EB8202DD
:10137800536C01335364022B20D83C2303FB0453E2
:10138800022283F84C2006EB4412D2F8003523F0F1
:10139800804343F00043C2F8003506EB4413802233
:1013A800C3F80825C9E63C2303FB0453072283F846
:1013B8004D202146286800F057FAEEE73C2303FB4E
:1013C800045300225A64042283F84C2021462846FC
:1013D800FFF7ECFAE1E72146286800F012FA10F46A
:1013E800806F10D03C2303FB0453092283F84D205F
:1013F8002146286800F038FA06EB44134FF480625F
:10140800C3F8082599E62146286800F0FAF910F093
:10141800020F3FF492AE06EB441606F5A0620223D3
:1014280093603C2303FB045393F84D30012B23D0E6
:10143800032B62D0042B6FD0052B00F08280062B83
:1014480000F08880072B02D0092B7FF476AE3C236E
:1014580003FB0453022283F84D205A6C01325A646C
:10146800022A40F281803C2303FB045300225A6481
:10147800042283F84C200EE03C2303FB0453022291
:1014880083F84D20012283F84C2093F82630023B44
:10149800DBB2934209D93C2303FB045393F84C2055
:1014A80021462846FFF782FA47E6A97941B93C2345
:1014B80003FB045393F83D2082F0010283F83D209A
:1014C8000129E8D13C2303FB04535B6B002BE2D0DA
:1014D8003C2202FB0452128D1344013BB3FBF2F38E
:1014E80013F0010FD7D03C2303FB045393F83D209E
:1014F80082F0010283F83D20CDE73C2303FB04532F
:10150800022283F84D20DB7E012BC4D13C2303FB50
:10151800045383F84C20BEE73C2303FB0453022109
:1015280083F84D1083F84C10DB7E012BB3D13C239C
:1015380003FB04530021D976536823F480335360A6
:10154800A9E73C2303FB0453022283F84D2083F8C8
:101558004C20A0E73C2303FB0453022283F84D20D0
:10156800052283F84C2096E73C2303FB0453022210
:1015780083F84C20D6F8003523F0804343F000432D
:10158800C6F8003587E7F8B504460568284600F030
:1015980041F9012800D0F8BD206800F02EF9002894
:1015A800F9D0206800F029F910F4001F03D023684F
:1015B8004FF400125A61206800F01FF910F4801FE0
:1015C80003D023684FF480125A61206800F015F99F
:1015D80010F0806F03D023684FF080625A61206852
:1015E80000F00BF910F0020F02D0236802225A61B2
:1015F800206800F002F910F0005F08D023684FF06F
:1016080000525A61D5F8403413F0010F25D02068F4
:1016180000F0F3F810F0807F32D1206800F0EDF888
:1016280010F0080F30D1206800F0E7F810F0007FC4
:1016380031D1206800F0E1F810F0100FABD022682B
:10164800936923F0100393612046FFF7CFF92268CE
:10165800936943F0100393619DE71021284600F039
:1016680061F8284600F083F8637A022B03D02046FD
:10167800FFF796F9CBE70121206800F0CFF8F6E7ED
:101688002046FFF70FFAC8E72046FFF77DF92368E1
:1016980008225A61C7E7206800F0E1F807460023EE
:1016A8001E4606E0F1B22046FFF72DFD3346013312
:1016B8001E466379B34212D906F00F0327FA03F3E3
:1016C80013F0010FF2D005EB4613D3F8003513F4ED
:1016D800004FE7D0F1B22046FFF73CFAE6E723686F
:1016E8004FF000725A61A4E790F8D433012B0BD065
:1016F80010B50446012380F8D433006800F035F9AA
:10170800002084F8D40310BD02207047836843F09A
:101718000103836000207047836823F0010383601E
:101728000020704782B000230193019B013301938D
:10173800019BB3F1706F15D80369002BF5DA00230C
:101748000193890141F020010161019B013301935B
:10175800019BB3F1706F08D8036913F0200FF4D11F
:10176800002000E0032002B070470320FBE782B0AE
:1017780000230193019B01330193019BB3F1706F27
:1017880013D80369002BF5DA0023019310230361B2
:10179800019B01330193019BB3F1706F08D8036972
:1017A80013F0100FF4D1002000E0032002B07047BE
:1017B8000320FBE700B5844608464FEA920E02F084
:1017C8000302002305E00CF58051096840F8041B6A
:1017D80001337345F7D37AB10CF5805CDCF800C0AF
:1017E8000021CBB2DB002CFA03F300F8013B0131F6
:1017F800013A92B2002AF4D100BD426980691040D2
:10180800704700EB411000F5A063D0F80805DB68CD
:1018180018407047406900F00100704700F5806C7F
:10182800D0F8003423F00303C0F80034D0F80034B3
:1018380001F003021343C0F80034012907D002293C
:101848000BD141F27073CCF80430002070474BF68E
:101858008033CCF80430002070470120704700F531
:101868008060406980B2704710B582B0044600239A
:10187800019300EB411101F5A062D1F80035C3F3E3
:101888008143D1F800054FEAD07C5068D4F808E0CD
:101898001EF0200F08D0C00F30B9BCF1000F5AD08D
:1018A800012B58D0032B56D01BB3022B21D0D1F8D3
:1018B800003543F08043C1F80035D4F8103413F4F0
:1018C8007F0F4BD1D1F8003523F00043C1F8003524
:1018D800D1F8003543F00043C1F80035019B0133CE
:1018E8000193019BB3F57A7F35D81368002BF5DB9C
:1018F80031E0D1F8003543F08043C1F80035A368E2
:1019080013F0200F21D1E36A13F47F0F16D1D1F819
:10191800003523F00043C1F80035D1F8003543F015
:101928000043C1F80035019B01330193019BB3F5D6
:101938007A7F10D81368002BF5DB0CE0D1F800355E
:1019480043F00043C1F8003505E0D1F8003543F015
:101958000043C1F80035002002B010BDD1F80035B1
:1019680043F00043C1F80035F5E730B583B00446CD
:1019780000230193FFF7D0FE10212046FFF7D2FE87
:10198800054608B101231D462046FFF7F0FE08B1C1
:1019980001231D4600220AE004EB4211D1F800356C
:1019A80023F0802343F08043C1F8003501320F2A29
:1019B800F2D9002100E001310F2916D804EB4110BB
:1019C80000F5A062D0F8003523F4004343F040430B
:1019D800C0F80035019B01330193019BB3F57A7F71
:1019E800E9D81368002BF5DBE5E74FF0FF33C4F8BF
:1019F800143463612046FFF789FE284603B030BDE2
:101A0800002800F0E28170B582B00446036813F044
:101A1800010F3BD09B4B9B6803F00C03042B2CD08D
:101A2800984B9B6803F00C03082B21D06368B3F52F
:101A3800803F4FD0B3F5A02F52D0924B1A6822F4B2
:101A480080321A601A6822F480221A606368002BB8
:101A580050D000F0C7FC05468A4B1B6813F4003FC2
:101A680014D100F0BFFC401B6428F5D90320B3E172
:101A7800844B5B6813F4800FD8D0824B1B6813F437
:101A8800003F03D06368002B00F0A181236813F0A6
:101A9800020F54D07B4B9B6813F00C0F3ED0794B50
:101AA8009B6803F00C03082B33D0E368002B68D045
:101AB800754B01221A6000F095FC0546714B1B68B6
:101AC80013F0020F54D100F08DFC401B0228F5D909
:101AD800032081E16B4A136843F480331360B5E750
:101AE800684B1A6842F480221A601A6842F48032FD
:101AF8001A60ABE700F076FC0546624B1B6813F4EE
:101B0800003FC3D000F06EFC401B6428F5D90320C9
:101B180062E15C4B5B6813F4800FC6D1594B1B68BC
:101B280013F0020F03D0E368012B40F05281554AAD
:101B3800136823F0F803216943EAC103136023689B
:101B480013F0080F42D063696BB34F4B0122C3F8FF
:101B5800802E00F047FC05464A4B5B6F13F0020FDE
:101B680034D100F03FFC401B0228F5D9032033E1B3
:101B7800444A136823F0F803216943EAC103136058
:101B8800DDE7414B00221A6000F02CFC05463D4B76
:101B98001B6813F0020FD2D000F024FC401B02286F
:101BA800F5D9032018E1384B0022C3F8802E00F045
:101BB80019FC0546334B5B6F13F0020F06D000F09B
:101BC80011FC401B0228F5D9032005E1236813F016
:101BD800040F79D02B4B1B6C13F0805F34D100239A
:101BE8000193284B1A6C42F080521A641B6C03F064
:101BF80080530193019B01231E46244B1B6813F459
:101C0800807F24D0A368012B35D0052B40D01D4BF5
:101C18001A6F22F001021A671A6F22F004021A677B
:101C2800A368002B3ED000F0DDFB0546154B1B6F6B
:101C380013F0020F47D100F0D5FB401B41F2883367
:101C48009842F3D90320C7E000231E46D5E70F4A80
:101C5800136843F48073136000F0C4FB05460B4B14
:101C68001B6813F4807FCDD100F0BCFB401B022819
:101C7800F5D90320B0E0034A136F43F0010313675B
:101C8800CEE700BF00380240000047420070004025
:101C9800584B1A6F42F004021A671A6F42F0010299
:101CA8001A67BDE700F09EFB0546524B1B6F13F009
:101CB800020F08D000F096FB401B41F2883398428F
:101CC800F3D9032088E0EEB9A369002B00F08380E4
:101CD800484A926802F00C02082A51D0022B17D009
:101CE800454B00221A6600F07DFB0446414B1B68F9
:101CF80013F0007F42D000F075FB001B0228F5D9D5
:101D0800032069E03B4A136C23F080531364DBE73C
:101D1800394B00221A6600F065FB0546354B1B68F7
:101D280013F0007F06D000F05DFB401B0228F5D9B8
:101D3800032051E0E369226A1343626A43EA82138B
:101D4800A26A5208013A43EA0243E26A43EA02639A
:101D5800284A5360284B01221A6600F043FB0446C8
:101D6800244B1B6813F0007F06D100F03BFB001BDF
:101D78000228F5D903202FE000202DE000202BE0D9
:101D8800012B2BD01B4B5B6803F48001E269914265
:101D980026D103F03F02216A8A4223D1616A47F6BD
:101DA800C0721A40B2EB811F1ED103F44031A26AFF
:101DB8005208013AB1EB024F18D103F07063E26A9E
:101DC800B3EB026F14D1002006E001207047012018
:101DD80002E0012000E0184602B070BD0120FBE7D8
:101DE8000120F9E70120F7E70120F5E70120F3E7F3
:101DF8000120F1E7003802400000474208B5334BA4
:101E08009B6803F00C03042B5BD0082B5BD12F4B92
:101E18005A6802F03F025B6813F4800F2CD02B4BFA
:101E28005868C0F388104FEA401CBCEB000C6EEBFE
:101E38000E0E4FEA8E1343EA9C634FEA8C11B1EB06
:101E48000C0163EB0E03DB0043EA5173C90011EB8D
:101E5800000C43F10003590200234FEA4C2041EAE9
:101E6800DC51FEF78DF9194B5B68C3F3014301336D
:101E78005B00B0FBF3F008BD144B5868C0F3881042
:101E88004FEA401CBCEB000C6EEB0E0E4FEA8E13B3
:101E980043EA9C634FEA8C11B1EB0C0163EB0E0330
:101EA800DB0043EA5173C90011EB000C43F1000356
:101EB800990200234FEA8C2041EA9C51FEF760F911
:101EC800D1E70348D7E70348D5E700BF0038024009
:101ED80000127A000024F400002800F09B8070B5FE
:101EE8000D4604464F4B1B6803F007038B4208D28C
:101EF800CBB24C4A1370136803F007038B4240F0CF
:101F08008B80236813F0020F17D013F0040F04D04E
:101F1800454A936843F4E0539360236813F0080F2D
:101F280004D0414A936843F4604393603E4A9368FF
:101F380023F0F003A1680B439360236813F0010FAB
:101F480032D06368012B21D09A1E012A25D9364A3E
:101F5800126812F0020F61D033498A6822F0030236
:101F680013438B6000F03EFA06462F4B9B6803F044
:101F78000C036268B3EB820F16D000F033FA801BB3
:101F880041F288339842F0D9032042E0264A126889
:101F980012F4003FE0D101203BE0234A126812F01E
:101FA800007FD9D1012034E01E4B1B6803F00703E2
:101FB800AB4207D9EAB21B4B1A701B6803F0070340
:101FC800AB422DD1236813F0040F06D0164A93684C
:101FD80023F4E053E1680B439360236813F0080F80
:101FE80007D0114A936823F46043216943EAC10387
:101FF8009360FFF703FF0C4B9B68C3F303130B4A73
:10200800D35CD8400A4B18600A4B186800F09EF958
:10201800002070BD012070470120FAE70120F8E791
:102028000120F6E7003C024000380240282C000856
:10203800380000203400002070B582B08E4600239E
:1020480069E085684FEA430C032101FA0CF125EA9F
:102058000105DEF80C1001FA0CF129438160416892
:1020680021EA0201DEF80420C2F300129A400A4372
:10207800426065E0D908083150F8212003F00705CF
:10208800AD004FF00F0C0CFA05FC22EA0C0CDEF840
:102098001020AA4042EA0C0240F8212067E00722FB
:1020A80000E0002202FA0CF22A430231604D45F8A2
:1020B8002120604A9168E24321EA0405DEF80460C1
:1020C80016F4801F01D044EA01055A498D60C96899
:1020D80002EA0105DEF8046016F4001F01D044EAA4
:1020E80001055449CD60496802EA0105DEF804603B
:1020F80016F4003F01D044EA01054E494D600968D5
:102108000A40DEF8045015F4803F01D044EA010289
:1021180048490A6001330F2B00F2878001229A4058
:10212800DEF8001001EA020432EA0101F2D1DEF819
:10213800041001F0030C0CF1FF3CBCF1010F80D935
:10214800DEF8042002F00302032A0AD0C1685D0009
:102158000322AA4021EA0201DEF80820AA400A4325
:10216800C260DEF8042002F00302022A82D001686D
:102178004FEA430C032202FA0CF221EA0201DEF8CC
:10218800042002F0030202FA0CF20A430260DEF8AD
:10219800042012F4403FBDD000220192264A516C1F
:1021A80041F480415164526C02F480420192019AD8
:1021B80099088D1C1E4A52F8255003F0030C4FEA6B
:1021C8008C0C0F2202FA0CF225EA02051B4A9042F7
:1021D8003FF467AF02F5806290421AD002F5806240
:1021E800904218D002F58062904216D002F58062C3
:1021F800904214D002F58062904212D002F58062BB
:10220800904210D002F5806290423FF448AF082215
:1022180048E7012246E7022244E7032242E7042274
:1022280040E705223EE706223CE702B070BD00BF4A
:1022380000380140003C01400038024000000240E4
:102248000AB181617047090481617047002807DB82
:1022580000F01F02400901239340024A42F820304F
:10226800704700BF00E100E0002808DB0901C9B29F
:1022780000F1604000F5614080F80013704700F0FD
:102288000F000901C9B2014B1954704714ED00E061
:1022980000B500F00700A0F1030CBCF1040F07D84B
:1022A800C0F1070E0430062806D84FF0000C03E0F2
:1022B8004FF0040E4FF0000C4FF0FF3303FA0EF00E
:1022C80021EA000101FA0CF103FA0CF322EA0302F5
:1022D80041EA020000BD0000074AD36823F4E06326
:1022E8001B041B0C000200F4E060034343F0BF63CF
:1022F80043F40033D360704700ED00E010B50446A6
:10230800054BD868C0F30220FFF7C2FF01462046FC
:10231800FFF7AAFF10BD00BF00ED00E008B5FFF70A
:1023280095FF08BD0138B0F1807F0BD24FF0E02354
:102338005861054AF02182F823100020986107228D
:102348001A6170470120704700ED00E010B504469F
:102358000E4B18680E4B1A784FF47A73B3FBF2F3EE
:10236800B0FBF3F0FFF7DEFF68B90F2C01D90120AD
:102378000AE0024621464FF0FF30FFF7BFFF054B4A
:102388001C60002000E0012010BD00BF38000020C4
:10239800300000203400002008B50B4B1A6842F4C6
:1023A80000721A601A6842F480621A601A6842F46D
:1023B80080721A600320FFF78FFF0020FFF7C6FF27
:1023C800FEF7A2FA002008BD003C0240034A11684B
:1023D800034B1B780B441360704700BFB40C0020FC
:1023E80030000020014B1868704700BFB40C002073
:1023F80038B50446FFF7F6FF0546B4F1FF3F02D0B3
:10240800044B1B781C44FFF7EDFF401BA042FAD396
:1024180038BD00BF300000207047704770477047D4
:10242800704770B504460368DE681D6915F0020F31
:1024380010D016F0020F0DD06FF002021A610123BE
:10244800037703689B6913F0030F5ED0FFF7E6FF7D
:102458000023237715F0040F12D016F0040F0FD0C5
:1024680023686FF004021A610223237723689B69AB
:1024780013F4407F4FD02046FFF7D0FF0023237787
:1024880015F0080F12D016F0080F0FD023686FF060
:1024980008021A61042323772368DB6913F0030F0A
:1024A80040D02046FFF7BAFF0023237715F0100F1E
:1024B80012D016F0100F0FD023686FF010021A61B7
:1024C800082323772368DB6913F4407F31D0204643
:1024D800FFF7A4FF0023237715F0010F02D016F0B1
:1024E800010F2DD115F0800F02D016F0800F2FD1DB
:1024F80015F0400F02D016F0400F31D115F0200F23
:1025080002D016F0200F33D170BDFFF786FF2046AA
:10251800FFF785FF9CE72046FFF77FFF2046FFF780
:102528007EFFABE72046FFF778FF2046FFF777FFEF
:10253800BAE72046FFF771FF2046FFF770FFC9E7AB
:1025480023686FF001021A612046FFF765FFC9E7AB
:1025580023686FF080021A61204600F0ECF8C7E7A4
:1025680023686FF040021A612046FFF759FFC5E75C
:1025780023686FF020021A61204600F0DBF8C3E7F9
:102588000368324A904212D0B0F1804F0FD0A2F5C2
:102598007C4290420BD002F58062904207D002F54F
:1025A8008062904203D002F57842904203D123F032
:1025B80070034A681343254A90422AD0B0F1804FED
:1025C80027D0A2F57C42904223D002F58062904247
:1025D8001FD002F5806290421BD002F578429042EB
:1025E80017D002F57052904213D002F580629042E3
:1025F8000FD002F5806290420BD0A2F5983290423B
:1026080007D002F58062904203D002F580629042C2
:1026180003D123F44073CA68134323F080034A6943
:1026280013438A68C2620A688262084A904203D0E9
:1026380002F58062904201D10A690263026842F0A1
:1026480004020260012242610360704700000140F9
:1026580040B310B5044690F83D30F3B1022384F836
:102668003D30214651F8040BFFF78AFF012384F817
:10267800463084F83E3084F83F3084F8403084F89F
:10268800413084F8423084F8433084F8443084F888
:10269800453084F83D30002010BD80F83C30FEF70E
:1026A80053F9DBE70120704790F83C20012A3DD020
:1026B80000B50346012280F83C20022280F83D2024
:1026C80002685068D2F808E020F0700C086840EA08
:1026D8000C0050601A68164882421AD0B2F1804F36
:1026E80017D0A0F57C40824213D000F5806082426A
:1026F8000FD000F5806082420BD000F5784082420E
:1027080007D000F57050824203D0A0F59430824281
:1027180005D12EF0800E496841EA0E019160012230
:1027280083F83D20002083F83C0000BD022070475C
:102738000000014070477047034AD2F8883043F4DC
:102748007003C2F88830704700ED00E008B50378E0
:102758000B2B00D008BDD0F87C33002BFAD09B6936
:102768009847F7E708B5D0F8C4230132C0F8C42366
:10277800FFF7ECFF08BD012380F8233370470023DF
:1027880080F82333012380F8213370470346012260
:1027980080F82023002083F8210383F82203704760
:1027A80038B50446012380F82133002580F82053EA
:1027B80080F82353FEF712F92179204600F006F835
:1027C8006179204600F002F8284638BD0F2906D85E
:1027D800E03100EB81004368C3F30E03436000203F
:1027E800704700000A4B5B5C43F47F4308300121CB
:1027F800814023EA010307494B611AB14B6923F071
:1028080080034B61034A536943F47F435361704724
:102818003C0000200010024038B5054600240AE0BC
:10282800A10025FA01F1002201F00F012046FFF76F
:10283800D9FF0134E4B2072CF2D938BDDFF834D01F
:10284800FFF77AFF0C480D490D4A002302E0D458DF
:10285800C4500433C4188C42F9D30A4A0A4C0023E2
:1028680001E013600432A242FBD300F019F8FDF72F
:1028780029FE704700000220000000206C000020A4
:10288800482C00086C000020B80C0020FEE7024429
:102898000346934200D1704703F8011BF9E7000093
:1028A80070B50D4B0D4C00261D1BB6EBA50F09D1BD
:1028B80000F0AAF90A4C0B4B00261D1BB6EBA50F1E
:1028C80005D170BD54F8043B98470136EDE754F83C
:1028D800043B98470136F1E7402C0008402C0008DB
:1028E800402C0008442C00082DE9F04782B0064629
:1028F800DDF828E00846B4460D46002B4ED18A4242
:1029080014466DD9B2FA82F242B1C2F12003954061
:1029180026FA03F394401D4306FA02FC260CA7B2DC
:10292800B5FBF6F14FEA1C4306FB115543EA054394
:1029380001FB07F0984209D9E31801F1FF3580F04F
:102948000381984240F20081023923441B1A1FFA7E
:102958008CFCB3FBF6F006FB10334CEA034C00FB8F
:1029680007F363450AD914EB0C0C00F1FF3580F02E
:10297800ED80634540F2EA80A444023840EA014011
:10298800ACEB030C0021BEF1000F04D02CFA02F3CB
:102998000022CEE9003202B0BDE8F0878B4209D9A7
:1029A800BEF1000F01D0CEE900610021084602B057
:1029B800BDE8F087B3FA83F1174600294DD1834269
:1029C80002D3B24200F20F81B6EB070C60EB0303AF
:1029D80001201D46BEF1000FDDD0CEE900C5DAE7C3
:1029E800002A00F098801A46B4FA84F3002B40F0CD
:1029F800AF800B1B270CA6B20121B3FBF7F54FEAFA
:102A08001C4007FB153340EA034306FB05F89845CD
:102A180007D9E31805F1FF3002D2984500F2E880A3
:102A28000546A3EB08031FFA8CFCB3FBF7F007FB82
:102A380010334CEA034C06FB00F3634508D914EB4A
:102A48000C0C00F1FF3602D2634500F2CE8030460E
:102A5800ACEB030C40EA054095E7C1F120058B403B
:102A680022FA05FC4CEA030C00FA01F426FA05F3F5
:102A7800E84002FA01F943EA04084FEA1C4206FA60
:102A880001FAB0FBF2F71FFA8CF602FB17004FEAC7
:102A9800184444EA004407FB06F0A0420AD91CEB9C
:102AA800040407F1FF3380F09C80A04240F2998033
:102AB800023F6444241A1FFA88F3B4FBF2F002FBC5
:102AC800104443EA044300FB06F69E4209D91CEB76
:102AD800030300F1FF3480F082809E427FD90238E0
:102AE800634440EA0740A0FB09749B1BA3423E468F
:102AF800A04664D361D0BEF1000F0AD0BAEB06023B
:102B080063EB080303FA05F5CA401543CB40CEE949
:102B1800005300213FE7730843EAC1734A08190CC0
:102B280041EA02414FEAC67C9BB2B2FBF4F026466A
:102B3800A04627461F2243EA0143B1FBF4F1A3EB69
:102B4800080341EA004158E72946FFE6284615E709
:102B58001A46C3F120019C4026FA01F320FA01F13C
:102B680090400343270C06FA02FCB1FBF7F0A6B22B
:102B780007FB1015190C41EA054100FB06F58D42CB
:102B88003BD9611801D28D4220D8491B0138B1FBCD
:102B9800F7F5019505FB06F8019D9BB207FB15119A
:102BA80043EA0143434526D2E31805F1FF31C6D273
:102BB8004345C4D2A91E2344C1E7BA459BD2B7EB0B
:102BC800090664EB0C040138A04694E7651B294408
:102BD8000238B1FBF7F5019505FB06F8DCE720465E
:102BE8007FE71F4666E70846F4E6A44402382FE765
:102BF800023D234415E70199A1E7491BB1FBF7F50D
:102C0800019505FB06F8C7E7F8B500BFF8BC08BC96
:102C18009E467047F8B500BFF8BC08BC9E46704792
:102C28000000000000000000010203040607080974
:082C3800B8FCFF7F0100000061
:042C40002502000861
:042C4400FD01000886
:102C48002D2D2D2D2D2D2D2D2D2D0C1B0C2D150A3B
:102C58000B2D01012D18012D2D2D2D2D2D2D2D2D57
:102C68002D000000EEED0E8028000000010000009D
:102C780001000000100000000024F400C0F9C0B0FA
:102C8800999282F880908883C6A1868EC289F9E1DC
:102C980085C7EAABC08C98AF9287C19DD59B91A49C
:0C2CA8007FB7FEFDFBF7EFDFBFFF000071
:040000050800284582
:00000001FF
